{
  "contractName": "Decall",
  "abi": [
    {
      "inputs": [],
      "stateMutability": "nonpayable",
      "type": "constructor"
    },
    {
      "inputs": [
        {
          "internalType": "string",
          "name": "",
          "type": "string"
        },
        {
          "internalType": "uint256",
          "name": "",
          "type": "uint256"
        }
      ],
      "name": "rooms",
      "outputs": [
        {
          "internalType": "bytes32",
          "name": "",
          "type": "bytes32"
        }
      ],
      "stateMutability": "view",
      "type": "function",
      "constant": true
    },
    {
      "inputs": [
        {
          "internalType": "string",
          "name": "",
          "type": "string"
        },
        {
          "internalType": "string",
          "name": "",
          "type": "string"
        }
      ],
      "name": "sdps",
      "outputs": [
        {
          "internalType": "uint256",
          "name": "time",
          "type": "uint256"
        },
        {
          "internalType": "string",
          "name": "sdp",
          "type": "string"
        }
      ],
      "stateMutability": "view",
      "type": "function",
      "constant": true
    },
    {
      "inputs": [
        {
          "internalType": "string",
          "name": "roomId",
          "type": "string"
        },
        {
          "internalType": "bytes32",
          "name": "userId",
          "type": "bytes32"
        }
      ],
      "name": "joinRoom",
      "outputs": [],
      "stateMutability": "nonpayable",
      "type": "function"
    },
    {
      "inputs": [
        {
          "internalType": "string",
          "name": "roomId",
          "type": "string"
        },
        {
          "internalType": "string",
          "name": "userId",
          "type": "string"
        },
        {
          "internalType": "string",
          "name": "sdpString",
          "type": "string"
        }
      ],
      "name": "putSDP",
      "outputs": [
        {
          "internalType": "string",
          "name": "",
          "type": "string"
        }
      ],
      "stateMutability": "nonpayable",
      "type": "function"
    },
    {
      "inputs": [
        {
          "internalType": "string",
          "name": "roomId",
          "type": "string"
        },
        {
          "internalType": "string",
          "name": "userId",
          "type": "string"
        }
      ],
      "name": "getSDP",
      "outputs": [
        {
          "internalType": "uint256",
          "name": "i",
          "type": "uint256"
        },
        {
          "internalType": "string",
          "name": "s",
          "type": "string"
        }
      ],
      "stateMutability": "view",
      "type": "function",
      "constant": true
    },
    {
      "inputs": [
        {
          "internalType": "string",
          "name": "roomId",
          "type": "string"
        }
      ],
      "name": "getParticipants",
      "outputs": [
        {
          "internalType": "bytes32[]",
          "name": "",
          "type": "bytes32[]"
        }
      ],
      "stateMutability": "view",
      "type": "function",
      "constant": true
    }
  ],
  "bytecode": "0x608060405234801561001057600080fd5b50610bf9806100206000396000f3fe608060405234801561001057600080fd5b50600436106100625760003560e01c80632233e4e8146100675780637a926ee2146100835780637b150577146100b45780637e90def7146100e4578063e5d6063c14610114578063e6654e5914610145575b600080fd5b610081600480360381019061007c9190610659565b610175565b005b61009d600480360381019061009891906106ad565b6101be565b6040516100ab929190610987565b60405180910390f35b6100ce60048036038101906100c99190610719565b6102bc565b6040516100db9190610965565b60405180910390f35b6100fe60048036038101906100f99190610618565b610341565b60405161010b9190610928565b60405180910390f35b61012e600480360381019061012991906106ad565b6103b7565b60405161013c929190610987565b60405180910390f35b61015f600480360381019061015a91906107b0565b61049c565b60405161016c919061094a565b60405180910390f35b6001826040516101859190610911565b90815260200160405180910390208190806001815401808255809150506001900390600052602060002001600090919091909150555050565b60006060600080856040516101d39190610911565b9081526020016040518091039020846040516101ef9190610911565b90815260200160405180910390206040518060400160405290816000820154815260200160018201805461022290610ac3565b80601f016020809104026020016040519081016040528092919081815260200182805461024e90610ac3565b801561029b5780601f106102705761010080835404028352916020019161029b565b820191906000526020600020905b81548152906001019060200180831161027e57829003601f168201915b50505050508152505090508060000151816020015192509250509250929050565b60606040518060400160405280428152602001838152506000856040516102e39190610911565b9081526020016040518091039020846040516102ff9190610911565b90815260200160405180910390206000820151816000015560208201518160010190805190602001906103339291906104e3565b509050508190509392505050565b60606001826040516103539190610911565b90815260200160405180910390208054806020026020016040519081016040528092919081815260200182805480156103ab57602002820191906000526020600020905b815481526020019060010190808311610397575b50505050509050919050565b600082805160208101820180518482526020830160208501208183528095505050505050818051602081018201805184825260208301602085012081835280955050505050506000915091505080600001549080600101805461041990610ac3565b80601f016020809104026020016040519081016040528092919081815260200182805461044590610ac3565b80156104925780601f1061046757610100808354040283529160200191610492565b820191906000526020600020905b81548152906001019060200180831161047557829003601f168201915b5050505050905082565b60018280516020810182018051848252602083016020850120818352809550505050505081815481106104ce57600080fd5b90600052602060002001600091509150505481565b8280546104ef90610ac3565b90600052602060002090601f0160209004810192826105115760008555610558565b82601f1061052a57805160ff1916838001178555610558565b82800160010185558215610558579182015b8281111561055757825182559160200191906001019061053c565b5b5090506105659190610569565b5090565b5b8082111561058257600081600090555060010161056a565b5090565b6000610599610594846109dc565b6109b7565b9050828152602081018484840111156105b157600080fd5b6105bc848285610a81565b509392505050565b6000813590506105d381610b95565b92915050565b600082601f8301126105ea57600080fd5b81356105fa848260208601610586565b91505092915050565b60008135905061061281610bac565b92915050565b60006020828403121561062a57600080fd5b600082013567ffffffffffffffff81111561064457600080fd5b610650848285016105d9565b91505092915050565b6000806040838503121561066c57600080fd5b600083013567ffffffffffffffff81111561068657600080fd5b610692858286016105d9565b92505060206106a3858286016105c4565b9150509250929050565b600080604083850312156106c057600080fd5b600083013567ffffffffffffffff8111156106da57600080fd5b6106e6858286016105d9565b925050602083013567ffffffffffffffff81111561070357600080fd5b61070f858286016105d9565b9150509250929050565b60008060006060848603121561072e57600080fd5b600084013567ffffffffffffffff81111561074857600080fd5b610754868287016105d9565b935050602084013567ffffffffffffffff81111561077157600080fd5b61077d868287016105d9565b925050604084013567ffffffffffffffff81111561079a57600080fd5b6107a6868287016105d9565b9150509250925092565b600080604083850312156107c357600080fd5b600083013567ffffffffffffffff8111156107dd57600080fd5b6107e9858286016105d9565b92505060206107fa85828601610603565b9150509250929050565b6000610810838361087a565b60208301905092915050565b600061082782610a1d565b6108318185610a40565b935061083c83610a0d565b8060005b8381101561086d5781516108548882610804565b975061085f83610a33565b925050600181019050610840565b5085935050505092915050565b61088381610a6d565b82525050565b61089281610a6d565b82525050565b60006108a382610a28565b6108ad8185610a51565b93506108bd818560208601610a90565b6108c681610b84565b840191505092915050565b60006108dc82610a28565b6108e68185610a62565b93506108f6818560208601610a90565b80840191505092915050565b61090b81610a77565b82525050565b600061091d82846108d1565b915081905092915050565b60006020820190508181036000830152610942818461081c565b905092915050565b600060208201905061095f6000830184610889565b92915050565b6000602082019050818103600083015261097f8184610898565b905092915050565b600060408201905061099c6000830185610902565b81810360208301526109ae8184610898565b90509392505050565b60006109c16109d2565b90506109cd8282610af5565b919050565b6000604051905090565b600067ffffffffffffffff8211156109f7576109f6610b55565b5b610a0082610b84565b9050602081019050919050565b6000819050602082019050919050565b600081519050919050565b600081519050919050565b6000602082019050919050565b600082825260208201905092915050565b600082825260208201905092915050565b600081905092915050565b6000819050919050565b6000819050919050565b82818337600083830152505050565b60005b83811015610aae578082015181840152602081019050610a93565b83811115610abd576000848401525b50505050565b60006002820490506001821680610adb57607f821691505b60208210811415610aef57610aee610b26565b5b50919050565b610afe82610b84565b810181811067ffffffffffffffff82111715610b1d57610b1c610b55565b5b80604052505050565b7f4e487b7100000000000000000000000000000000000000000000000000000000600052602260045260246000fd5b7f4e487b7100000000000000000000000000000000000000000000000000000000600052604160045260246000fd5b6000601f19601f8301169050919050565b610b9e81610a6d565b8114610ba957600080fd5b50565b610bb581610a77565b8114610bc057600080fd5b5056fea2646970667358221220031663d5a6f838e251d4f9eb1d2cb868ff038c50ec9b27ed84721efb6b15b17b64736f6c63430008040033",
  "immutableReferences": {},
  "source": "// SPDX-License-Identifier: GPL-3.0\npragma solidity >=0.4.22 <0.9.0;\npragma experimental \"ABIEncoderV2\";\n\ncontract Decall {\n\n    struct SDPData {\n        uint time;\n        string sdp;\n    }\n\n    struct Room {\n        string name;\n        bytes32[] members;\n    }\n\n    // room, user, sdp\n    mapping(string => mapping(string => SDPData)) public sdps;\n\n    // participants\n    mapping (string => bytes32[]) public rooms;\n\n    uint256 number;\n\n    constructor() {\n\n    }\n    \n    function joinRoom(string memory roomId,bytes32 userId) public {\n        rooms[roomId].push(userId);\n    }\n\n    function putSDP(string memory roomId,string memory userId,string memory sdpString) public returns (string memory) {\n        \n        sdps[roomId][userId] = SDPData(block.timestamp, sdpString);\n        //votesReceived[roomId] = sdpString;\n       \n        return sdpString;\n    }\n    \n    function getSDP(string memory roomId, string memory userId) public view returns (uint i, string memory s){\n        \n        SDPData memory sdp = sdps[roomId][userId];\n        \n        // return (sdp.time, sdp.sdp);\n        return (sdp.time, sdp.sdp);\n    }\n\n    function getParticipants(string memory roomId) public view returns (bytes32[] memory)  {\n        return rooms[roomId];\n    }\n\n}",
  "sourcePath": "/Users/edison/Documents/Code/blockchain/dapp-react-call/contracts/Decall.sol",
  "compiler": {
    "name": "solc",
    "version": "0.8.4+commit.c7e474f2.Emscripten.clang"
  },
  "schemaVersion": "3.4.1",
  "updatedAt": "2021-07-02T17:21:00.891Z",
  "networkType": "ethereum",
  "devdoc": {
    "kind": "dev",
    "methods": {},
    "version": 1
  },
  "userdoc": {
    "kind": "user",
    "methods": {},
    "version": 1
  }
}